:020000040000FA
:100000000C9461010C9489010C9489010C94890170
:100010000C9489010C9489010C9489010C94890138
:100020000C9489010C9489010C9489010C94890128
:100030000C9489010C9489010C9489010C94890118
:100040000C94B8200C9489010C9486200C946020A8
:100050000C9489010C9489010C9489010C948901F8
:100060000C9402210C94890100407A10F35A00A0EC
:10007000724E18090010A5D4E80000E87648170071
:1000800000E40B54020000CA9A3B000000E1F505B1
:10009000000080969800000040420F000000A086FB
:1000A00001000000102700000000E803000000002D
:1000B0006400000000000A000000000001000000D1
:1000C00000002C76D888DC674F0823DFC1DFAE59EB
:1000D000E1B1B796E5E3E453C63AE651997696E87E
:1000E000E6C28426EB898C9B62ED407C6FFCEFBC02
:1000F0009C9F40F2BAA56FA5F490055A2AF75C932D
:100100006B6CF9676DC11BFCE0E40D47FEF520E662
:10011000B500D0ED902E0300943577050080841E45
:10012000080000204E0A000000C80C333333330FA0
:10013000986E12831141EF8D2114893BE65516CF3D
:10014000FEE6DB18D1844B381BF77C1D901DA4BB49
:10015000E424203284725E228100C9F124ECA1E5FE
:100160003D27626C6E6B696E660076657200312E9B
:10017000312E3000682D626561740034350062757F
:1001800066662D696E003235360064657600417210
:100190006475696E6F20556E6F0063707500415411
:1001A0006D6567613332385000636F6E00573531CB
:1001B00030300066772D7479706500544D504C5086
:1001C0005F76362D365A57006275696C640041754A
:1001D0006720203420323032322030303A30303A0A
:1001E000353600000000000000250028002B00002C
:1001F000000000240027002A000000000023002641
:10020000002900040404040404040402020202029B
:1002100002030303030303010204081020408001CA
:100220000204081020010204081020000000080049
:100230000201000003040700000000000000008C21
:10024000018C018C018C018C018C018C018C018C46
:10025000018C018C018C018C018C018C018C018C36
:10026000018C018C018C018C018C018C018C018C26
:10027000018C018C018C018C018C018C018C01336F
:100280000A8B010F0A8B01E909C3098B018B018BD2
:10029000018B018B018B018B018B018B018B018BFE
:1002A000018B018B018B018B018B018B018B018BEE
:1002B000018B018B018B018B018B018B018B010069
:1002C000AD2211241FBECFEFD8E0DEBFCDBF12E0BC
:1002D000A0E0B1E0E2E8F8E602C005900D92A43992
:1002E000B107D9F726E0A4E9B2E001C01D92A83712
:1002F000B207E1F711E0C1E6D1E004C02197FE01A9
:100300000E944033C036D107C9F70E9498230C944D
:100310003F340C940000089508958CBD9DBD089550
:1003200020E3FC0120833296862F82958F706F70B8
:100330006A3030F4605D6293682F8111F5CF0895C3
:10034000695CF9CFFC01818D928D0895089508951F
:100350000895AF92BF92CF92DF92EF92FF920F93E8
:100360001F93CF93DF936C017B018B01040F151F4B
:10037000EB015E01AE18BF08C017D10759F06991B3
:10038000D601ED91FC910190F081E02DC601099517
:10039000892B79F7C501DF91CF911F910F91FF90C4
:1003A000EF90DF90CF90BF90AF900895FC01538DF8
:1003B000448D252F30E0842F90E0821B930B54173F
:1003C00010F0CF96089501970895FC01918D828DCC
:1003D000981761F0A28DAE0FBF2FB11D5D968C9165
:1003E000928D9F5F9F73928F90E008958FEF9FEFA4
:1003F0000895FC01918D828D981731F0828DE80F60
:10040000F11D858D90E008958FEF9FEF0895FC0119
:10041000918D228D892F90E0805C9F4F821B9109E6
:100420008F739927089586EE93E00E94070221E0DA
:10043000892B09F420E0822F089580E090E0892B39
:1004400029F00E94130281110C9400000895FC0110
:10045000A48DA80FB92FB11DA35ABF4F2C91848D25
:1004600090E001968F739927848FA689B7892C9382
:10047000A089B1898C91837080648C93938D848DD5
:10048000981306C00288F389E02D80818F7D8083D8
:100490000895EF92FF920F931F93CF93DF93EC0198
:1004A00081E0888F9B8D8C8D98131AC0E889F9891B
:1004B000808185FF15C09FB7F894EE89FF8960831E
:1004C000E889F98980818370806480839FBF81E09F
:1004D00090E0DF91CF911F910F91FF90EF900895E1
:1004E000F62E0B8D10E00F5F1F4F0F731127E02EBC
:1004F0008C8D8E110CC00FB607FCFACFE889F989F4
:10050000808185FFF5CFCE010E942702F1CFEB8DD0
:10051000EC0FFD2FF11DE35AFF4FF0829FB7F894C7
:100520000B8FEA89FB8980818062CFCF682F86EEAE
:1005300093E00C944902CF93DF93EC01888D8823DC
:10054000B9F0AA89BB89E889F9898C9185FD03C036
:10055000808186FD0DC00FB607FCF7CF8C9185FF1B
:10056000F2CF808185FFEDCFCE010E942702E9CF37
:10057000DF91CF910895833081F028F4813099F094
:100580008230A9F008958730A9F08830C9F084300E
:10059000B1F4809180008F7D03C0809180008F77BF
:1005A00080938000089584B58F7784BD089584B5C5
:1005B0008F7DFBCF8091B0008F778093B00008953E
:1005C0008091B0008F7DF9CF1F93CF93DF93282FB9
:1005D00030E0F901E55DFD4F8491F901E95EFD4FE1
:1005E000D491F901ED5FFD4FC491CC23A9F0162FF2
:1005F00081110E94BB02EC2FF0E0EE0FFF1FEB51C8
:10060000FE4FA591B4918FB7F894EC91111108C0E9
:10061000D095DE23DC938FBFDF91CF911F9108959A
:10062000DE2BF8CFCF93DF9390E0FC01E95EFD4F26
:1006300024918D5F9D4FFC0184918823C9F090E047
:10064000880F991FFC01E151FE4FA591B491FC0167
:10065000EB51FE4FC591D49161110DC09FB7F89435
:100660008C91209582238C938881282328839FBF97
:10067000DF91CF910895623051F49FB7F8943C9187
:10068000822F809583238C93E8812E2BEFCF8FB719
:10069000F894EC912E2B2C938FBFEACF1F93CF931E
:1006A000DF93182FEB0161E00E941203209739F4C9
:1006B00060E0812FDF91CF911F910C94E402CF3F36
:1006C000D10511F461E0F5CFE12FF0E0E55DFD4FDC
:1006D000E491E33031F140F4E130B1F0E230E1F0A7
:1006E000C038D1057CF7E4CFE73029F1E83059F183
:1006F000E430B1F780918000806280938000D093D5
:100700008B00C0938A0004C084B5806884BDC7BDD7
:10071000DF91CF911F91089584B5806284BDC8BDDB
:10072000F7CF80918000806880938000D09389000B
:10073000C0938800EDCF8091B00080688093B000B6
:10074000C093B300E5CF8091B00080628093B00089
:10075000C093B400DDCF8E3008F08E508770806477
:1007600080937C0080917A00806480937A008091ED
:100770007A0086FDFCCF80917800909179000895F1
:100780003FB7F89480914C0390914D03A0914E0394
:10079000B0914F0326B5A89B05C02F3F19F00196D5
:1007A000A11DB11D3FBFBA2FA92F982F8827BC01CB
:1007B000CD01620F711D811D911D42E0660F771FF3
:1007C000881F991F4A95D1F708958F929F92AF92F3
:1007D000BF92CF92DF92EF92FF926B017C010E9459
:1007E000C0034B015C01C114D104E104F104B9F070
:1007F0000E94C003681979098A099B09683E734001
:100800008105910580F321E0C21AD108E108F108C1
:1008100088EE880E83E0981EA11CB11CE4CFFF90E7
:10082000EF90DF90CF90BF90AF909F908F90089502
:100830002FB7F894609148037091490380914A035F
:1008400090914B032FBF08954F925F926F927F92CA
:10085000AF92BF92CF92DF92EF92FF920F931F93CE
:10086000CF93DF93EC016B017B01E40EF51E8B014E
:100870005801AC18BD080E151F0511F10E9418048F
:10088000688779878A879B87E881F9810284F38565
:10089000E02DCE01099597FF23C00E9418044884DB
:1008A00059846A847B8464197509860997094C8088
:1008B0005D806E807F80641575058605970520F341
:1008C000C501DF91CF911F910F91FF90EF90DF90C5
:1008D000CF90BF90AF907F906F905F904F900895B2
:1008E000F80181938F01C4CF2091D602260F3327C0
:1008F000331F21323105ECF420911F03FC0190E0FD
:1009000080E0243069F082E00895A091D602219120
:10091000AC014A545D4FA40FB52FB11D2C93019625
:10092000861798F38091D602680F6093D60280E014
:10093000089581E0089510921F0381E080931E03C3
:100940001092F90261E082E10E94E40261E083E139
:100950000E94E402E9EBF0E080818E7F8083808159
:100960008D7F808388E48093B80085E48093BC0009
:100970000895CF93DF9391E09093B5028823B9F067
:10098000C091B800D091BA008091BC008A7B80935E
:10099000BC0060E082E10E94E40260E083E10E942A
:1009A000E4020E949B04D093BA00C093B800DF9188
:1009B000CF910895E091C5038091C403E81730F406
:1009C000F0E0EB56FD4F808190E008958FEF9FEFB0
:1009D00008959091C5038091C4032FEF3FEF9817BE
:1009E00048F4E92FF0E0EB56FD4F208130E09F5FA7
:1009F0009093C503C90108958091C4039091C503E4
:100A0000891B990B0895CF92DF92EF92FF920F937B
:100A10001F93CF93DF937C01CB018A0120912503A3
:100A2000222389F0EB016B01C40ED51ECC15DD0528
:100A300069F06991D701ED91FC910190F081E02D71
:100A4000C7010995F3CF642F0E947404C801DF9198
:100A5000CF911F910F91FF90EF90DF90CF9008956D
:100A6000CF93DF931F92CDB7DEB769832091250323
:100A70002223F9F02091C203203258F021E030E027
:100A8000FC013383228390E080E00F90DF91CF91CF
:100A900008958091C303E82FF0E0EA5DFC4F99814F
:100AA00090838F5F8093C3038093C20381E090E0C3
:100AB000ECCF61E0CE0101960E947404F7CFCF9293
:100AC000DF92EF92FF920F931F93CF93DF93FC017E
:100AD000C48121E020932503C09346031092C303F1
:100AE0001092C2038385682B83E894E00E9430054E
:100AF000D091C203D13208F092C00E94C0036B01B2
:100B00007C0180911F03811165C082E080931F03E7
:100B100081E080931E038FEF80931D0310921C03CE
:100B2000D0931B03A6E2B3E0EBEFF2E080E0D81332
:100B300085C01092FA028091FA02CC0FC82BC093A4
:100B4000FA028091F902813009F07CC01092F9021A
:100B50000E94C0036B017C018091FA028093BB006C
:100B60008091210390912203A0912303B09124034B
:100B7000892B8A2B8B2B99F00E94C00300912103B3
:100B80001091220320912303309124036C197D09D5
:100B90008E099F090617170728073907E0F180918A
:100BA000BC0083FDD9CF85EC8093BC000E94C003BC
:100BB0006B017C0180911F03823009F445C0809154
:100BC0001D038F3F61F180911D03803241F18091BF
:100BD0001D0325C08091210390912203A09123033E
:100BE000B0912403892B8A2B8B2B09F48ACF0E9486
:100BF000C00300912103109122032091230330911F
:100C000024036C197D098E099F0906171707280709
:100C1000390708F076CF809120030E94B904109222
:100C2000C3031092C20310922503DF91CF911F914D
:100C30000F91FF90EF90DF90CF9008959D91919349
:100C40008F5F75CF85EEB0CF809121039091220305
:100C5000A0912303B0912403892B8A2B8B2B09F4B9
:100C6000A9CF0E94C003009121031091220320917B
:100C70002303309124036C197D098E099F090617FF
:100C800017072807390708F095CFC5CFFC01208149
:100C90002EBD9B012150310941F051810DB407FE59
:100CA000FDCF4EB55EBD4193F5CF61507109860F02
:100CB000971F0DB407FEFDCF2EB5FC0120830895CC
:100CC000E0915103F0915203808190915003892B60
:100CD00080830895E0915103F091520390818091B7
:100CE000500380958923808308958EBD00000DB444
:100CF00007FEFDCF8EB50895AF92BF92CF92DF92DF
:100D0000EF92FF920F931F93CF93DF93CDB7DEB790
:100D100028970FB6F894DEBF0FBECDBF8C017B01C4
:100D20006A018091E5038333E1F45801A40EB51EF6
:100D3000A016B10609F46FC00E946A0680EF0E94F7
:100D40007506812F0E947506802F0E9475060F5F21
:100D50001F4FF70181917F010E9475060E94600676
:100D6000E7CF5B01A40EB51E8433C1F40E946A066E
:100D700019830A838D2D80688B83CC8264E070E0B8
:100D8000CE0101960E944606AE14BF0409F441C08C
:100D9000F70181917F010E947506F6CF0E946A06D5
:100DA0000F3F110509F028F419820A8384E08B8330
:100DB0000CC017FD17C019820A8333E016950795FA
:100DC0003A95E1F7007E0C600B8386E0C816D104EB
:100DD000A0F5F701DE011496EA15FB0599F0819163
:100DE0008D93FACFC80126E0969587952A95E1F76D
:100DF000807E19830A830115104C10F48461D7CFCB
:100E00008C61D5CFB6016D5F7F4FCE0101960E94F8
:100E100046060E946006C60128960FB6F894DEBF0B
:100E20000FBECDBFDF91CF911F910F91FF90EF903B
:100E3000DF90CF90BF90AF90089563E070E0CE0157
:100E400001960E944606F70181917F010E94750676
:100E5000AE14BF04C1F7DDCFCF93DF931F92CDB7A0
:100E6000DEB7898341E050E0BE016F5F7F4F90E0C5
:100E700080E00E947C060F90DF91CF91089590E072
:100E80002091E503233339F40C96982F990F990F8D
:100E9000990F80E008954896F8CFDA01E091540365
:100EA000F0E0FE2FEE27E60FF71F90E0982F88273F
:100EB000A901BD018E0F9F1F0C947C06CF93DF9379
:100EC00000D0CDB7DEB779836A8322E030E0AE018F
:100ED0004F5F5F4F60E170E00E944D070F900F90F1
:100EE000DF91CF910895CF93DF9300D0CDB7DEB7D8
:100EF00079836A8322E030E0AE014F5F5F4F64E0A8
:100F000070E00E944D070F900F90DF91CF910895F0
:100F1000CF93DF931F92CDB7DEB72091540330E01B
:100F2000322F2227260F371F90E0982F88274983DA
:100F300041E050E0BE016F5F7F4F820F931F0E9420
:100F40007C060F90DF91CF910895CF93DF931F928E
:100F5000CDB7DEB76983DC01ED91FC910280F381AE
:100F6000E02D41E050E0BE016F5F7F4F09950F908B
:100F7000DF91CF910895FC019485FB01848598133E
:100F800003C081E0943008F080E00895CF93DF93B0
:100F90001F92CDB7DEB76983DC01ED91FC91028031
:100FA000F381E02D41E050E0BE016F5F7F4F099576
:100FB0000F90DF91CF9108950895FF920F931F93A3
:100FC000CF93DF93EB01FC01178A168A2A81211146
:100FD00009C02B81211106C02C81211103C02D8154
:100FE000222301F141155105E9F08A01FC01F08C41
:100FF00080E591E00E948D01AE014E5F5F4F24E0DD
:1010000030E06CE070E08F2D0E944D07B8018F2D0D
:101010000E945E0781E090E0DF91CF911F910F91D8
:10102000FF90089580E0F7CFFC01848595850895B1
:10103000FC0184899589089527EC31E0FC01318316
:101040002083FB014089518962897389FC014283B5
:101050005383648375830895DC01ED91FC91048CC6
:10106000F58DE02D099490E080E008958EE00E94D7
:10107000AB03BC01990F880B990B0E94FB3020E059
:1010800030E040EA50E40E945A3120E030EC4FE773
:1010900054E40E94B2322AE037ED43E25CE30E945E
:1010A000B2320895CF9380E390E00E94960286EEDC
:1010B00093E00E940702892BD1F386EE93E00E9411
:1010C000E501C82F8093940286EE93E00E94070208
:1010D000892BD1F386EE93E00E94E50120E03C2FBE
:1010E000A901482BCA01CF910895FC019485992349
:1010F00069F080819181DC01ED91FC910688F7898E
:10110000E02D099591E0811101C090E0892F0895AB
:10111000DC011C961C921C978D919C91DC01ED9139
:10112000FC910488F589E02D0994FC017687658798
:101130000895DC01ED91FC91068CF78DE02D099569
:1011400091E089270895862F089581E086270895E4
:1011500021E0FC018485843008F020E0822F08958E
:101160008F929F92AF92BF92EF92FF920F931F9335
:10117000CF93DF93CDB7DEB7A1970FB6F894DEBF5C
:101180000FBECDBF7C01FA01CB0119A2223008F4B9
:101190002AE08E010F5D1F4F822E912CB12CA12CC5
:1011A000BF01A50194010E948132F901CA016A3090
:1011B00074F5605DD8016E938D01232B242B252BB4
:1011C00079F790E080E0109789F0FD010190002010
:1011D000E9F73197AF014A1B5B0BD701ED91FC9109
:1011E0000280F381E02DB801C7010995A1960FB6E1
:1011F000F894DEBF0FBECDBFDF91CF911F910F914D
:10120000FF90EF90BF90AF909F908F900895695C92
:10121000D1CFFC0101900020E9F73197AF01481BC5
:10122000590BBC0185EC94E00C94A9018F929F921C
:10123000AF92BF92CF92DF92EF92FF920F931F93E4
:10124000CF93DF937C01EB016C0182E0C80ED11CCF
:101250004701E5E08E0E911C10E000E0F60141919F
:101260006F0150E070E060E02AE0CE010E94B0081B
:101270005C01E881F9810190F081E02D6EE2CE0100
:1012800009958A0D9B1D080F191FC814D90431F741
:10129000F701458150E070E060E02AE0CE010E9455
:1012A000B008800F911FDF91CF911F910F91FF9098
:1012B000EF90DF90CF90BF90AF909F908F90089568
:1012C0000F931F93CF938C01C62F0E945F056C2F45
:1012D0006460C8010E945F056C2F6B7FC8010E948B
:1012E0005F0583EC90E00197F1F7CF911F910F918B
:1012F00008950F931F93CF93DF938C01D62FC42FA4
:10130000607F642B0E94600980E1D89FB0011124A6
:101310006C2BC801DF91CF911F910F910C94600944
:10132000CF93DF93CDB7DEB728970FB6F894DEBF23
:101330000FBECDBF98E0EDE2F1E0DE011196019025
:101340000D929A95E1F79091CD04961708F46FEFFE
:10135000262F30E0220F331F41E050E04C0F5D1F7D
:10136000240F351FF9016081680F606840E085EC4B
:1013700094E028960FB6F894DEBF0FBECDBFDF9184
:10138000CF910C947909FB01808191810E94222EDA
:10139000892B81F081E090E00E94960281E090E04C
:1013A0000E94960261E087E00E94900989EC91E03A
:1013B0000C94090981E090E00E94960290E080E0A0
:1013C0000E94960261E087E00E94900982ED91E020
:1013D000EFCFFB01808191810E94222E892B81F029
:1013E00090E080E00E94960281E090E00E949602E8
:1013F00061E087E00E9490098CED91E00C9409096E
:1014000090E080E00E94960290E080E00E949602C8
:1014100061E087E00E94900985EE91E0EFCFFB014B
:10142000808191810E94222E21E0009709F420E022
:101430002093C603892B61F061E085E00E94E402FD
:1014400060E087E00E9490098FEE91E00C9409091A
:1014500060E085E00E94E40260E087E00E9490097D
:1014600088EF91E0F3CFFB01808191810E94222ED1
:10147000892B61F061E084E00E94E40260E087E093
:101480000E94900981E092E00C94090960E084E0F8
:101490000E94E40260E087E00E9490098BE092E005
:1014A000F3CF41E00E94790981E090E00895AF9286
:1014B000BF92CF92DF92EF92FF920F931F93CF9341
:1014C000DF9300D000D0CDB7DEB78C016B017A017D
:1014D0008091E5038333E9F45B016801C40ED51EF6
:1014E000C016D106A9F10E946A068FE00E94750617
:1014F000812F0E947506802F0E9475060F5F1F4F77
:1015000080E00E947506F50181935F010E946006EC
:10151000E7CF843369F50E946A0619830A838F2D09
:101520008F778B83EC8264E070E0CE0101960E949D
:101530004606A70170E060E0C6010E941934E1147C
:10154000F10421F0B701C6010E9446060E94600620
:10155000C7010F900F900F900F90DF91CF911F91C7
:101560000F91FF90EF90DF90CF90BF90AF900895D4
:101570000E946A060F3F110509F030F419820A83B0
:101580001B8263E070E0D1CF17FD0BC019820A8384
:1015900033E0169507953A95E1F7007E08600B83D6
:1015A000F0CFC80126E0969587952A95E1F7807ED1
:1015B00019830A830115104C18F480618B83E1CFE5
:1015C0008861FCCFCF93DF931F92CDB7DEB7209118
:1015D000540330E0322F2227260F371F90E0982F38
:1015E000882741E050E0BE016F5F7F4F820F931F5D
:1015F0000E94570A89810F90DF91CF910895CF9370
:10160000C82F462F61E070E00E94880761E070E01B
:101610008C2F0E94E20A8111F9CFCF910895CF93C8
:10162000C82F80E591E00E948D0168E070E08C2F6A
:10163000CF910C94FF0ACF93C82F80E591E00E94D0
:101640008D0160E170E08C2FCF910C94FF0ACF9355
:10165000DF93EC01888D843020F40E941B0B84E022
:10166000888FDF91CF910895CF93C82F80E591E0C7
:101670000E948D0163E070E08C2FCF910C94E20A00
:10168000CF93DF93EC018C858430D0F40E94340B2F
:10169000843189F0882379F0883169F021E08C3138
:1016A00059F4E881F9810084F185E02DCE01099596
:1016B00021E0892B09F420E0822FDF91CF9108955A
:1016C00080E0FBCFCF92DF92EF92FF92CF93DF9338
:1016D000EC018C85843068F40E940F0B0E94180482
:1016E0006B017C018C850E94340B811109C084E060
:1016F0008C87DF91CF91FF90EF90DF90CF9008958E
:1017000061E070E080E090E00E94E5030E94180430
:10171000AB01BC014C195D096E097F098D859E8561
:10172000B0E0A0E0481759076A077B07D8F28C851C
:101730000E941B0BDCCFCF93FC01C08D80E591E0B4
:101740000E948D0160E270E08C2F0E94FF0A62E02F
:1017500070E08C2F0E94E20A84FD16C062E070E007
:101760008C2F0E94E20A83FF0AC048E162E070E029
:101770008C2F0E94880780E090E0CF91089580E54B
:1017800091E00E948D01E3CF40E162E070E08C2F98
:101790000E94880781E0F0CFCF93DF931F92CDB7EF
:1017A000DEB741E050E0BE016F5F7F4F90E080E028
:1017B0000E94570A89810F90DF91CF910895CF93AE
:1017C000DF93C4E1D0E00E94CC0B882361F061E09C
:1017D00070E080E090E00E94E5032197A1F780E0AF
:1017E000DF91CF91089581E0FBCF1F93CF93DF93DB
:1017F0001F92CDB7DEB7182F80E591E00E948D01D2
:10180000812F0E943F0727E0129FF0011124E75328
:10181000FC4F22813381377041E050E0BE016F5FA1
:101820007F4F820F931F0E94570A89810F90DF918B
:10183000CF911F910895FC01808D843040F4218D5B
:10184000328D232B21F00E94F50B90E008958FEF4D
:101850009FEF0895CF93DF93FC012485243028F077
:101860008FEF9FEFDF91CF910895EC010190F08110
:10187000E02D0084F185E02D0995892B89F38C8575
:101880000E94F50B90E0EECFDA01E0915403F0E016
:10189000FE2FEE27E60FF71F90E0982F8827A9016B
:1018A000BD018E0F9F1F0C94570A8F929F92AF928B
:1018B000BF92CF92DF92EF92FF921F93CF93DF936D
:1018C000CDB7DEB72C970FB6F894DEBF0FBECDBFF5
:1018D0002091E50314E0222339F16B017C0180E5BE
:1018E00091E00E948D015E0127E0A20EB11C45012E
:1018F00010E063E070E0812F0E94E20AF40181931E
:101900004F01882349F11F5F143099F710E0F5016A
:1019100081915F018D31D9F08831C9F08A518230CF
:10192000B0F01F5F143099F7812F2C960FB6F89402
:10193000DEBF0FBECDBFDF91CF911F91FF90EF9023
:10194000DF90CF90BF90AF909F908F90089560E10F
:1019500070E0812F0E94FF0AA12EB12C83EE93E04C
:101960000197F1F742E870E060E0812F0E9488075C
:101970004FEF62E070E0812F0E948807B601C1142A
:10198000D10491F480912101909122010196811559
:10199000F0EC9F0708F45CC0909322018093210132
:1019A0006091210170912201812F0E94730786E0CE
:1019B000E5E3F1E0DE01119601900D928A95E1F7E1
:1019C000F70183818F778C8384818D8385818E83DA
:1019D000A7014E5F5F4F24E030E06CE070E0812FA4
:1019E0000E944D07B601812F0E945E0726E030E07D
:1019F000AE014F5F5F4F66E070E0812F0E944D07A0
:101A000061E070E0812F0E94FF0A27E02A9DC0015B
:101A10002B9D900D11249C0127533C4F7901F90116
:101A20001182108222E030E0AE01455F5F4F68E234
:101A300070E0812F0E94440C8B859C859827892714
:101A40009827F701938382831682158214826CCFC4
:101A500080E090ECA1CFCF92DF92EF92FF920F93B4
:101A60001F93CF93DF9300D000D000D0CDB7DEB767
:101A70008C016B017A01FC01808D843010F40E948E
:101A80001B0B87EC91E09A838983F6018281938115
:101A9000A481B5818B839C83AD83BE83B701CE01C6
:101AA00001960E94550CF801808F8430A0F4F586D1
:101AB000E486128E118E81E026960FB6F894DEBF72
:101AC0000FBECDBFDF91CF911F910F91FF90EF908F
:101AD000DF90CF90089580E0EFCFAF92BF92CF928A
:101AE000DF92EF92FF920F931F93CF93DF9300D07B
:101AF00000D000D0CDB7DEB7082F6B0180E591E0B4
:101B00000E948D019E012F5F3F4F7901590110E026
:101B100063E070E0812F0E94E20AF50181935F018A
:101B2000882341F11F5F143099F710E0F70181918C
:101B30007F018D31D1F08831C1F08A518230A8F017
:101B40001F5F143099F7812F26960FB6F894DEBFE9
:101B50000FBECDBFDF91CF911F910F91FF90EF90FE
:101B6000DF90CF90BF90AF90089560E170E0812F3B
:101B70000E94FF0AE12EF12C83EE93E00197F1F72A
:101B8000402F70E060E0812F0E9488074FEF62E0F5
:101B900070E0812F0E948807B601CD2889F48091DA
:101BA00021019091220101968115F0EC9F0798F197
:101BB0009093220180932101609121017091220173
:101BC000812F0E94730761E070E0812F0E94FF0A5D
:101BD00027E02E9DC0012F9D900D11249C012753BD
:101BE0003C4F7901F9011182108222E030E0AE0110
:101BF0004B5F5F4F68E270E0812F0E94440C8D8143
:101C00009E81982789279827F701938382831682DC
:101C10001582148298CF80E090ECCACFCF92DF92E9
:101C2000EF92FF921F93CF93DF93EC017B016A0148
:101C30008C85843048F40E94340B882319F08C85FD
:101C40000E940F0B84E08C87F70182819381A4812D
:101C5000B5810097A105B10551F490E080E0DF91D6
:101C6000CF911F91FF90EF90DF90CF9008958F3F1D
:101C70009F4FAF4FBF4F89F38091E503811103C0A0
:101C800084E08C87EACF70E060E081E20E946D0D15
:101C9000182F8C87843008F780E591E00E948D0131
:101CA000A7014E5F5F4F24E030E06CE070E0812FD1
:101CB0000E944D07B601812F0E945E0764E070E02C
:101CC000812F0E94FF0A0E9418046B017C018C8501
:101CD0000E94340B873109F18C31F9F0882309F423
:101CE000BCCF0E941804AB01BC014C195D096E0900
:101CF0007F098D859E85B0E0A0E084179507A60733
:101D0000B70738F061E070E080E090E00E94E50302
:101D1000DECF8C850E941B0BB3CF81E090E09FCF7C
:101D20000F931F93CF93DF93EC018B01888D843049
:101D300010F40E941B0B8091E503811107C094E011
:101D4000988FDF91CF911F910F910895B80182E094
:101D50000E946D0D888F843030F41D870C871A8E99
:101D6000198E81E0EECF80E0ECCF7F928F929F9230
:101D7000AF92BF92CF92DF92EF92FF920F931F9399
:101D8000CF93DF9300D0CDB7DEB7782E8B014A0119
:101D9000590122E030E0AE014F5F5F4F64E270E036
:101DA0000E94440CE980FA80FE24EF24FE24E00E19
:101DB000F11E970137704091E503072D10E0433382
:101DC00009F042C0085F1F4F102F0027110F110F9D
:101DD000110FC901800F911F4733C9F1A9014A0DA5
:101DE0005B1D4130584098F160E078E06B01C21A09
:101DF000D30AA601B4010E947C06A5014C195D0915
:101E0000B4016C0D7D1DC8010E947C06EA0CFB1C10
:101E1000F982EA8222E030E0AE014F5F5F4F64E278
:101E200070E0872D0E944D070F900F90DF91CF91AA
:101E30001F910F91FF90EF90DF90CF90BF90AF90E8
:101E40009F908F907F900895005F1F4FBDCFA50199
:101E5000B401DACFEF92FF921F93CF93DF9300D0BC
:101E6000CDB7DEB7182F22E030E0AE014F5F5F4FF5
:101E700060E270E00E94440CE980FA80FE24EF24C6
:101E8000FE2422E030E0AE014F5F5F4F60E270E081
:101E9000812F0E94440C89819A819827892798274D
:101EA000E816F90689F487E0189FF0011124E7533A
:101EB000FC4FF582E482C7010F900F90DF91CF9124
:101EC0001F91FF90EF9008957C01DBCF1F93CF937C
:101ED000DF93182F80E591E00E948D01812F0E94F1
:101EE0002A0FEC0163E070E0812F0E94E20A873143
:101EF00021F08C3111F0D0E0C0E0CE01DF91CF9124
:101F00001F910895CF93DF93EC018C85843060F4AA
:101F10000E94340B873111F08C3131F48C850E9492
:101F2000660F8115984088F3DF91CF910895FC01E9
:101F30008485843010F40C94660F90E080E008955E
:101F40009F92AF92BF92CF92DF92EF92FF920F9348
:101F50001F93CF93DF938C015B01942EE52EFC0140
:101F6000C688D788F08C80E591E00E948D018F2D86
:101F70000E942A0FC92DDE2D8C179D0708F4EC0155
:101F80009E01A501B6018F2D0E94B50EF80186892C
:101F900097898C0F9D1F978B868BCE01DF91CF91F8
:101FA0001F910F91FF90EF90DF90CF90BF90AF9077
:101FB0009F9008958F929F92AF92BF92CF92DF929F
:101FC000EF92FF920F931F93CF936C015B018A01F5
:101FD000FC01C485C430F0F57A014130584018F056
:101FE000E12C88E0F82E80E591E00E948D018C2F95
:101FF0000E942A0F4C0163E070E08C2F0E94E20ADD
:10200000873111F08C3149F58E149F0460F380E51F
:1020100091E00E948D019701A50170E060E08C2F96
:102020000E94B50E60E270E08C2F0E94FF0A62E011
:1020300070E08C2F0E94E20A84FD17C063E070E01C
:102040008C2F0E94E20A81110BC081E090E0F60122
:102050009383828310E000E010C0F12CE12CD7CFF5
:1020600080E591E00E948D01E2CF40E162E070E006
:102070008C2F0E948807EF2841F3C801CF911F9150
:102080000F91FF90EF90DF90CF90BF90AF909F9017
:102090008F900895FF920F931F93CF93DF9300D0FB
:1020A000CDB7DEB7F82E22E030E0AE014F5F5F4FD4
:1020B00066E270E00E94440C09811A811027012712
:1020C000102722E030E0AE014F5F5F4F66E270E024
:1020D0008F2D0E94440C89819A81982789279827FF
:1020E0000817190749F4C8010F900F90DF91CF919D
:1020F0001F910F91FF9008958C01E3CF1F93CF9311
:10210000DF93182F87E0189FE0011124C753DC4F9D
:1021100088819981009761F480E591E00E948D01AA
:10212000812F0E944A102E81821B910999838883F6
:10213000DF91CF911F910895FC018485843010F4C4
:102140000C947E1090E080E008954F925F927F9211
:102150008F929F92AF92BF92CF92DF92EF92FF92B7
:102160000F931F93CF93DF9300D0CDB7DEB7782EB8
:102170006B014A01A82EB12C27E0829FC0011124D7
:10218000FC01E753FC4F7F010081118180E591E064
:102190000E948D010815190554F4872D0E944A10DC
:1021A000F70126818C01021B11091183008301159F
:1021B000110529F563E070E0872D0E94E20A843161
:1021C00059F0882349F001E010E08C3111F410E05F
:1021D00000E0119501951109C8010F900F90DF9152
:1021E000CF911F910F91FF90EF90DF90CF90BF9014
:1021F000AF909F908F907F905F904F900895801642
:1022000091060CF4840187E08A9DF0018B9DF00D0E
:102210001124E753FC4FE280F380C114D10451F143
:102220002701F7E05F22872D0E943F07840D951D4F
:102230002091E503273309F453C09801240D351D7F
:102240002130384008F44CC020E038E049018418BF
:102250009508A401B6010E94570A2601480C591C92
:102260006801C818D908872D0E943F07A601B2014E
:102270000E94570AE00EF11E87E08A9DF0018B9DB7
:10228000F00D1124E753FC4FF382E282208131816B
:10229000201B310B318320838681800F912F911D6C
:1022A0008A3F910510F4232BF1F487E08A9DF00119
:1022B0008B9DF00D1124E753FC4F1682F982EA82C0
:1022C00022E030E0AE014F5F5F4F68E270E0872DA3
:1022D0000E944D0760E470E0872D0E94FF0A7CCFCA
:1022E000A801B601C5CF868377CFCF93DF93FC01DA
:1022F000218D328D2115310529F48FEF9FEFDF916C
:10230000CF910895EC01808D4217530708F0A90181
:102310000E94A5101816190684F7298D3A8D281BDE
:10232000390B3A8F298FEBCF0F931F93CF93DF9306
:102330001F92CDB7DEB7FC01218D328D232B41F4E6
:102340008FEF9FEF0F90DF91CF911F910F91089525
:102350008C0141E050E0BE016F5F7F4FFC01808D3A
:102360000E94A510181619065CF7F801818D928D50
:102370000197928F818F898190E0E4CFCF93DF9393
:102380001F92CDB7DEB741E050E0BE016F5F7F4FD7
:10239000FC0184850E94A5101816190634F4898161
:1023A00090E00F90DF91CF9108958FEF9FEFF9CFDD
:1023B000FC018485843010F40C94A51090E080E03A
:1023C00008950F931F93CF93DF9300D0CDB7DEB75F
:1023D000FC0124852430E0F48C0180E591E00E942A
:1023E0008D0122E030E0AE014F5F5F4F60E170E0B1
:1023F000F80184850E94440C89819A819827892755
:1024000098270F900F90DF91CF911F910F91089512
:1024100090E080E0F6CF0F931F93CF93DF9300D02F
:10242000CDB7DEB7FC0124852430E0F48C0180E5D3
:1024300091E00E948D0122E030E0AE014F5F5F4FDE
:1024400064E070E0F80184850E94440C89819A81DF
:102450009827892798270F900F90DF91CF911F9190
:102460000F91089590E080E0F6CFDC0187EC91E0D9
:102470008D939D9384E0FB0101900D928A95E1F785
:102480000895EF92FF920F931F93CF93DF9300D0A5
:1024900000D0CDB7DEB78C017B01FB018485843091
:1024A000A8F087EC91E0F801918380831282138277
:1024B00014821582C8010F900F900F900F90DF913A
:1024C000CF911F910F91FF90EF90089580E591E0DB
:1024D0000E948D0124E030E0AE014F5F5F4F6CE061
:1024E00070E0F70184850E94440CBE016F5F7F4F4E
:1024F000C8010E943512DECF0F931F93CF93DF9355
:10250000CDB7DEB728970FB6F894DEBF0FBECDBFAC
:102510008C01D80159964D915C915A9741155105FE
:1025200051F0ED91FC91048CF58DE02D70E060E0B0
:10253000C8010995EECFF801808D0E947E10892B8D
:10254000B1F148E050E0BE016F5F7F4FD80158966F
:102550008C910E94A51018161906F4F4D801509613
:1025600084E0FE01319601900D928A95E1F78D810C
:1025700090E0982F88272E81820F911DF801958B6E
:10258000848B8F81282F30E0322F22278885820F7D
:10259000932F911D928F818F28960FB6F894DEBFEE
:1025A0000FBECDBFDF91CF911F910F91089590E0A5
:1025B00080E0F2CF4F925F926F927F928F929F92C4
:1025C000AF92BF92CF92DF92EF92FF920F931F9341
:1025D000CF93DF93CDB7DEB763970FB6F894DEBF26
:1025E0000FBECDBF7C016B013A01FB0120E090E002
:1025F00080E06AE03191332309F461C040ED430F7C
:102600004A3008F04DC0689FA001699F500D112409
:10261000CA01C097830F911D37FD9A958F3F910591
:1026200049F340F3F70142815381648175818091C0
:10263000BB049091BC04A091BD04B091BE044817A6
:1026400059076A077B0709F40DC28701085F1F4F0E
:102650000E9418046F7077277C5FC8010E94900E5B
:10266000813009F004C287EC91E09A838983F701F5
:1026700082819381A481B5818B839C83AD83BE834A
:1026800045E350E0BE016F5F7F4FC8010E94DD0748
:10269000892BA9F5D12CC12CC8010E94270B17C08A
:1026A0003E3209F0BFCF233009F4BCCFD301A20FD3
:1026B000B11D12968C932F5F90E080E09BCF23306A
:1026C00009F0B0CFF3018583CC24C394D12CC6018B
:1026D00063960FB6F894DEBF0FBECDBFDF91CF91EA
:1026E0001F910F91FF90EF90DF90CF90BF90AF9030
:1026F0009F908F907F906F905F904F9008950E9471
:102700001804F7017783668342E050E0B7016A5FFF
:102710007F4FC8010E94A00F81E090E09A838983D7
:1027200042E050E0BE016F5F7F4FC8010E94A00FE2
:1027300080E091E09A83898342E050E0BE016F5FC0
:102740007F4FC8010E94A00F1A82198242E050E018
:10275000BE016F5F7F4FC8010E94A00F42E050E0B2
:10276000BE016F5F7F4FC8010E94A00F42E050E0A2
:10277000BE016F5F7F4FC8010E94A00F5601F60196
:102780008081882301F16501F60181912F01882361
:1027900011F08E32B1F446018A189B0818141904FE
:1027A00074F48D8641E050E0BE01635F7F4FC80145
:1027B0000E94A00FA401B501C8010E94A00F520100
:1027C000DECF6201E1CF1D8641E050E0BE01635FD4
:1027D0007F4FC8010E94A00FC12CDD24D394DA8260
:1027E000C98242E050E0BE016F5F7F4FC8010E9486
:1027F000A00FDA82C98242E050E0BE016F5F7F4FD6
:10280000C8010E94A00FC8010E949B0B892B09F4EC
:1028100041CFF3E0AF2EB12C230122E0420E511C38
:10282000D4C0F7014281538164817581808D918D7F
:10283000A28DB38D481759076A077B0709F008C1B5
:10284000848D958DC59709F003C181A192A15DEF9B
:10285000C52EDD24DA940C970CF4ADC04CE050E0AA
:10286000BE016F5F7F4FC8010E9475118B819C81F3
:102870009827892798279A8B898BF701468157815A
:1028800029813A814217530709F0E7C097FFE5C055
:102890008F7092703BEFC32EDD24DA94892B09F000
:1028A0008AC06F8078847624672476242AEFC22E2B
:1028B000DD24DA946114710409F47DC0D12CC12C9B
:1028C0008D819E81982789279827C816D906F8F404
:1028D00041E050E0BE01635F7F4FC8010E94751167
:1028E0004D85442331F050E070E060E0C8010E9463
:1028F00075118D858111ECCF44E050E070E060E00F
:10290000C8010E947511FFEFCF1ADF0AD9CF912CB1
:10291000812C41E050E0BE016D5E7F4FC8010E94F6
:1029200075114B89842F807C09F06CC0442331F0F1
:1029300050E070E060E0C8010E9475118B89811140
:10294000E8CF42E050E0BE01615F7F4FC8010E94C6
:10295000751142E050E0BE01635F7F4FC8010E94E5
:10296000751144E050E070E060E0C8010E9475110C
:1029700042E050E0BE016F5E7F4FC8010E947511BA
:102980008F85988949895A898115914009F043C0FA
:10299000CD84DE84DC24CD24DC2481E0C816D1047F
:1029A000D1F54115544009F04AC044E050E0B2016D
:1029B000C8010E94751121E0A21AB10809F46CCE79
:1029C000FFEFCF16DF0609F067CE0E9418043B0127
:1029D0004C01C8010E947C12181619060CF421CF74
:1029E0000E941804661977098809990969387341A2
:1029F0008105910548F562E370E080E090E00E9477
:102A0000E503E7CF41E050E070E060E0C8010E94DC
:102A100075111B8A93CF54274527542770E060E037
:102A2000C8010E947511FFEF8F1A9F0A681479047C
:102A300009F06FCF96EFC92EDD24DA94BCCFE7EF13
:102A4000CE2EDD24DA94B7CFCC24CA94DC2CB3CFBD
:102A50006EEFC62EDD24DA94AECF4CEFC42EDD240B
:102A6000DA94A9CF8EEFC82EDD24DA9430CED12CA3
:102A7000C12C2DCECF92DF92EF92FF920F931F9336
:102A8000CF93DF93CDB7DEB7AF970FB6F894DEBF25
:102A90000FBECDBF7C016A0107EC11E01A830983E8
:102AA0001C861B8688EE93E0A0E0B0E08D879E87B1
:102AB000AF87B88B8FE391E09A878987188F0F8B48
:102AC000198E1A8E1B8E1C8E84E089A31BA70AA761
:102AD0001CA61DA61EA61FA68091AF049091B0044F
:102AE000A091B104B091B2048EA39FA3A8A7B9A7E7
:102AF0008B839C83AD83BE8318861F82AE01465DA7
:102B00005F4FCE0101960E94DA1281309105B1F437
:102B1000D701ED91FC910488F589E02D1DA30CA34C
:102B20008CA59DA5AEA5BFA58EA39FA3A8A7B9A759
:102B3000A601BE016C5D7F4FC7010995AF960FB628
:102B4000F894DEBF0FBECDBFDF91CF911F910F91E3
:102B5000FF90EF90DF90CF900895CF92DF92EF92A9
:102B6000FF920F931F93CF93DF93CDB7DEB7AF974D
:102B70000FB6F894DEBF0FBECDBF8C016B017A019A
:102B800087EC91E09A8389831B821C821D821E82BE
:102B90001C861B8648EE53E060E070E04D875E8740
:102BA0006F87788B2FE331E03A872987988F8F8B57
:102BB000198E1A8E1B8E1C8E24E029A39BA78AA730
:102BC0001CA61DA61EA61FA6D8011C968C9184309B
:102BD00060F40E94340B882321F0F80184850E9460
:102BE0000F0B84E0D8011C968C938091AF049091D8
:102BF000B004A091B104B091B2048EA39FA3A8A782
:102C0000B9A78B839C83AD83BE8318861F82AE01D8
:102C1000465D5F4FB601CE0101960E94DA12009721
:102C2000C1F0D801ED91FC910684F785E02D87EC89
:102C300091E09DA38CA38CA59DA5AEA5BFA58EA359
:102C40009FA3A8A7B9A7A701BE016C5D7F4FC801CC
:102C50000995AF960FB6F894DEBF0FBECDBFDF91DA
:102C6000CF911F910F91FF90EF90DF90CF9008953B
:102C70007F928F929F92AF92BF92CF92DF92EF920C
:102C8000FF920F931F93CF93DF93CDB7DEB7A69735
:102C90000FB6F894DEBF0FBECDBF8C01762E942EFA
:102CA000852E20E2A22ECE0101967C01DC01EA2DC8
:102CB0001D92EA95E9F76801F3E4CF0ED11C87EC89
:102CC00091E09AA389A38FEF8BA38CA38DA38EA3EE
:102CD00043E450E0BE016F5D7F4FC6010E94DD07F7
:102CE000019609F4BFC081E089838A8386E0B82E0B
:102CF000BB821C82D80114966D917D918D919C911F
:102D000017970E9439336D837E838F8398878986D6
:102D10009A8680E890E09C878B874CE150E0B70171
:102D2000C6010E94A00FFE0137968AE1DF011D92C5
:102D30008A95E9F74801B8E08B0E911CF401D701A0
:102D400001900D92BA94E1F740E150E0B701C6015D
:102D50000E94A00FF7011192AA94E9F796E0A92E1C
:102D6000B12C40E250E0B701C6010E94A00FF1E093
:102D7000AF1AB108B1F783E6898392E89A8393E5A5
:102D80009B838C8385E38D8381E08E837F829DE3AB
:102D9000988797E099878A8786E0F401DE011B9681
:102DA00001900D928A95E1F78CE0898B8A8B65E121
:102DB00072E0CE0143960E942934D8011B966C9193
:102DC000CE0149960E949001F8016485CE014B9690
:102DD0000E949001D8011D966C91CE014D960E94E3
:102DE00090014EE150E0B701C6010E94A00FB3E090
:102DF0007B121EC082E3898384E08A83F801968572
:102E00009B8397859C8390899D8391899E8396E37C
:102E10009F838887828D8987838D8A87848D8B871E
:102E2000858D8C874CE050E0B701C6010E94A00F51
:102E300087E3898386E08A8391E09B8393E09C8388
:102E40008D838FE08E838AE38F838BE388878FEF78
:102E5000898749E050E0B701C6010E94A00FC60172
:102E60000E949B0BA6960FB6F894DEBF0FBECDBF97
:102E7000DF91CF911F910F91FF90EF90DF90CF9056
:102E8000BF90AF909F908F907F9008950F931F9366
:102E9000CF93DF93EC01FB0101900020E9F78F0154
:102EA000061B170B8A819B81A801480F591F2C8193
:102EB0003D812417350768F028813981A801820FE8
:102EC000931F0E9410344A815B81400F511F5B8326
:102ED0004A83DF91CF911F910F9108950F931F9314
:102EE000CF93DF93EC0188819981009759F02A8173
:102EF0003B812617370730F081E0DF91CF911F919A
:102F00000F9108958B016F5F7F4F0E9446330097AA
:102F100059F0998388831B830A832C813D81232B5D
:102F200059F7FC011082E8CF80E0E7CF85ED809370
:102F3000BC008091210390912203A0912303B091C2
:102F400024030796A11DB11D23E0B695A79597957B
:102F500087952A95D1F72091BC0024FD03C01092DB
:102F60001F03089540912103509122036091230390
:102F700070912403452B462B472B69F30097A1053D
:102F8000B10541F025E32A95F1F700000197A10969
:102F9000B109E1CF809120030C94B9043F924F9284
:102FA0005F926F927F928F929F92AF92BF92CF92D9
:102FB000DF92EF92FF920F931F93CF93DF93CDB7E2
:102FC000DEB7EA970FB6F894DEBF0FBECDBF7C0127
:102FD0002A013B0169010E9418044B015C01870131
:102FE0000D5B1F4FC8010E947C12181619069CF039
:102FF0000E941804681979098A099B094616570620
:103000006806790608F466C162E370E080E090E04B
:103010000E94E503E7CF42E250E0BE016F5F7F4FC1
:10302000C8010E94751189818230D1F0312C832D25
:10303000EA960FB6F894DEBF0FBECDBFDF91CF91F9
:103040001F910F91FF90EF90DF90CF90BF90AF90C6
:103050009F908F907F906F905F904F903F900895DA
:10306000F801848995898334910501F76D817E810A
:103070008F8198850E9439334B015C01F601808273
:103080009182A282B38246E050E0B701685F7F4F31
:10309000CE014D960E940334892B41F6F7018081C1
:1030A0009181A281B38188169906AA06BB0608F40D
:1030B000BDCF84819581A681B78188159905AA0520
:1030C000BB0508F4B3CF89899A89AB89BC89868707
:1030D0009787A08BB18B4EEC50E070E060E0C801A8
:1030E0000E947511312CC701829698AB8FA7F7010A
:1030F000B696FAABE9AB08969CAB8BAB67019AE14D
:10310000C90ED11CBD96FEABEDABC701429698AF80
:103110008FABFD97FAAFE9AF4701FEE18F0E911C2F
:10312000F801818D928D181619060CF080CFC80118
:103130000E9494118333910509F4B2C014F58130D3
:10314000910509F464C044F4892B51F3C8010E942D
:103150009411AC01552775C08330910509F462C004
:103160000697A1F7C8010E949411B82E44E050E0E0
:10317000B401C8010E947511EB2DE450FF0BAF01A3
:1031800060C08A33910509F45FC084F585339105E9
:10319000B1F1C697D9F6C8010E9494115C01B6013D
:1031A000CE0189960E9435128BA59CA5ADA5BEA522
:1031B000892B8A2B8B2BB1F0EDA9FEA94080518081
:1031C00062807380B601CE0183960E9435128DA174
:1031D0009EA1AFA1B8A5A501481659066A067B06AF
:1031E00009F0B8CF44E050E0B60118C08B33910528
:1031F00009F440C08F3F910509F492CFA7CFC801D1
:103200000E949411C8010E949411382E89CFC801E0
:103210000E94941144E050E06FA978ADC8010E946B
:1032200075117ECFC8010E949411B82E44E050E081
:1032300069AD7AADC8010E9475118B2D8450990B30
:10324000AC0170E060E0EACFC8010E94941144E054
:1032500050E069A97AA9C8010E947511F70166A119
:1032600077A180A591A50E94393366A377A380A793
:1032700091A756CFC8010E94941144E050E06BA979
:103280007CA9C8010E947511F70162A573A584A5E8
:1032900095A50E94393362A773A784A795A740CF4D
:1032A000C8010E94941144E050E06FA578A9C801BC
:1032B0000E947511F70162A173A184A195A10E94DA
:1032C000393362A373A384A395A366A777A780ABC2
:1032D00091AB26CF33243A94AACE0F931F93CF936A
:1032E000DF93CDB7DEB762970FB6F894DEBF0FBE9F
:1032F000CDBF8C01CB014AE0BE016F5F7F4F0E94C2
:10330000702EBE016F5F7F4FC8010E944617629604
:103310000FB6F894DEBF0FBECDBFDF91CF911F91E6
:103320000F9108953F924F925F926F927F928F928A
:103330009F92AF92BF92CF92DF92EF92FF920F9344
:103340001F93CF93DF93CDB7DEB7A1970FB6F89455
:10335000DEBF0FBECDBF5C010DB71EB719A308A31A
:1033600060E070E0CB010E94E503D50157968D9196
:103370009C915897912C029709F495C056968C9180
:1033800056978F5F56968C93569754962D913C91F5
:10339000232B19F0992493947FC08330D8F7F5013B
:1033A000808191810E947508882309F43CC38E01B5
:1033B0000F5F1F4F3801D501ED91FC918081918104
:1033C000DC01ED91FC910084F185E02D0995181642
:1033D00019060CF028C3D501ED91FC9145E050E0B1
:1033E000BE01695E7F4F808191810E942404009715
:1033F00011F3059709F04AC0888D998D9827892780
:103400009827998F888FEA8CFB8CFE24EF24FE246A
:10341000FB8EEA8E892BD1F18F89811169C00E94C0
:103420001804F50166837783808791872789308D1B
:103430004A8D5B8D232B09F056C0288D398D2130A4
:10344000310509F050C049305105E1F0483C5105C3
:1034500019F044305105D1F4D5011E966D937D933A
:103460008D939C935197E1E0F0E05896FC93EE9396
:103470005797C5010E94432260E070E0CB010E9493
:10348000E50399CF83E090E0908F878BD5018D91F4
:103490009C910E948808912CD50156968C91569744
:1034A000815056968C93892DE8A1F9A10FB6F89416
:1034B000FEBF0FBEEDBFA1960FB6F894DEBF0FBEE4
:1034C000CDBFDF91CF911F910F91FF90EF90DF90D3
:1034D000CF90BF90AF909F908F907F906F905F90B4
:1034E0004F903F9008954530510509F064CFCECFFD
:1034F000F50180819181F1E0EF16FF0640F0D501E2
:1035000058961C921E9257970E94880854CF8DB6E9
:103510009EB697012F5F3F4FEDB7FEB7E21BF30B4F
:103520000FB6F894FEBF0FBEEDBF0DB71EB70F5F0D
:103530001F4FA701B801DC018D919C910E942404CA
:103540008E159F0509F06AC0EA8DFB8DE00FF11F13
:1035500010820E941804F501668377838087918723
:103560008F89813109F44AC258F58630D1F08F3005
:1035700009F4AEC0823051F5D50157968D919C91DA
:103580005897892B71F4E1E0F0E05896FC93EE93A4
:103590005797C5010E94432260E070E0CB010E9472
:1035A000E503488D598DD12CC12CF12CE12C08EC70
:1035B00010E030E020E060E0C5010E940D1E12C066
:1035C0008D31D1F258F4843109F482C0F501108EA6
:1035D000178A808191810E94880804C0893241F055
:1035E0008733A1F70FB6F8949EBE0FBE8DBEE3CE13
:1035F00084819581892B39F480E490E00E94592CD4
:10360000F50195838483EA8CFB8CE00EF11E1A830E
:103610000983FC82EB820E151F0530F00FB6F8947B
:103620009EBE0FBE8DBE32CF40E450E0B801D50142
:1036300014968D919C910E943034D5011496ED9191
:10364000FC9117AEC3010E942122FC01808191816F
:1036500000E510E08E159F0560F489819A8100973E
:1036600099F12B813C818217930770F50E94402EBF
:103670008B01D5018D919C910E948808D501ED9117
:10368000FC91119714968D919C9115979187808745
:103690001387028758961C921E9257970E9418040F
:1036A000DC01CB0188589341A109B109F50182875A
:1036B0009387A487B58786839783A087B1878687FA
:1036C0009787A08BB18B8ECF60E070E0CB01D0CF1D
:1036D000888D998DD50155969C938E9354974A8CDD
:1036E0005B8C6801C40CD51C1D8F0C8FDF8ECE8EB9
:1036F0000C151D0508F013C1F801E080F180CE0122
:103700004C960E942122DC018D919C918C159D0587
:1037100008F005C18C8D9D8DFC012081213459F468
:1037200001960E94222E4EE0342E380E069744F069
:1037300033243A9405C0CE014C960E943422382E90
:10374000F6E7EF16F2E7FF0609F406C138F531E6B1
:10375000E31632E7F30609F4E6C044E6E41642E76E
:10376000F40609F478C050E7E5165DE6F50609F0C1
:1037700037C18C8D9D8D8C159D0508F0D0C0FC0146
:1037800020812134A9F501960E94222E3EE0F32EDD
:10379000F80E069794F1FF24FA942FC084E6E816F9
:1037A00087E7F80609F4A2C096E7E91697E7F90655
:1037B00009F4E9C0A1E6EA16A7E7FA0609F010C184
:1037C000CE014C960E942122DC018D919C918C159A
:1037D0009D0508F0A4C061E0832D0E941203CE0174
:1037E0004C960E943422BC01832D0E944E0397C048
:1037F000CE014C960E943422F82ECE014C960E94A7
:1038000021220C8D1D8D6CE172E0C8010E942034D4
:1038100060E0892B79F06FE172E0C8010E942034EA
:10382000892B39F063E272E0C8010E942034892BB1
:1038300049F461E08F2D0E941203CE014C960E9444
:10384000212297CF67E272E0C8010E942034892BC1
:10385000A1F762E0EFCF7A8A698A1C8A1B8A00E1AD
:1038600010E01E8B0D8B6AE272E0CE0141960E9441
:103870004617032D10E0B801CE0141960E946D1944
:10388000F801E55DFD4F8491F801E95EFD4FF4908C
:103890000D5F1D4FF801049160E070E0002389F096
:1038A00081110E94BB02E02FF0E0EE0FFF1FE750F6
:1038B000FE4FA591B491EC91FE2261E070E009F415
:1038C00060E0CE0141960E946D190B891C89015060
:1038D000110929893A89D12CC12CF12CE12C50E015
:1038E00040E064E1C5010E940D1E19C0CE014C9656
:1038F0000E942122DC018D919C918C159D0578F40C
:1039000061E0832D0E941203CE014C960E94342266
:1039100061E0892B09F460E0832D0E94E402F50147
:10392000158A148A5FCE7A8A698A1C8A1B8AE0E12A
:10393000F0E0FE8BED8B6DE272E0CE0141960E94CD
:103940004617632D70E0CE0141960E946D19832DBC
:103950000E94AB03BC01B5CF3982BFE1B315F8F2C9
:10396000E32DF0E0EE0FFF1FE15CFD4F2591349158
:1039700021153105A1F2E1E02C383E0781F2C301A7
:10398000F9010995CCCFCE014C960E9421228C8D55
:103990009D8D9C01201B310B421A530A9A83898307
:1039A0005C824B825E824D82398AFFE1F31508F416
:1039B000B6CFE32DF0E0EE0FFF1FE158FD4F25914C
:1039C00034912115310509F4AACF01E02B383007D5
:1039D00009F4A5CFB301CE014196F90109959FCF16
:1039E000D50154964D915C91D12CC12CF12CE12C38
:1039F00002E010E030E020E060E074CF8A8D9B8D23
:103A0000800F911F1A8309839C838B8308171907E2
:103A100008F0E8CDC3010E942122D50155961C92E1
:103A20001E925497DFCD0E9418042B013C01F50132
:103A3000808191810E947508D50157962D913C9106
:103A40002130310509F05EC0F501811109C04686BB
:103A50005786608A718A108E178A8081918119CD6C
:103A600086819781A085B18593018201081B190B7E
:103A70002A0B3B0BD901C801893116EF9107A1052B
:103A8000B10548F7893C9F4AA105B10590F48285AC
:103A90009385A485B58593018201081B190B2A0B18
:103AA0003B0BD901C801893C9F4AA105B10508F427
:103AB00071CCF50186859785A089B1899301820132
:103AC000081B190B2A0B3B0BD901C8018137974101
:103AD000A105B10508F45ECCD12CC12CF12CE12C50
:103AE00010E000E030E020E050E040E066E0C5019A
:103AF0000E940D1ED5011E964D925D926D927C9294
:103B0000519748CC232B09F045CCF50146855785C4
:103B10006089718993018201041B150B260B370BF9
:103B2000B901A801882381F041375741610571052A
:103B300008F430CC808191810E948808D501589684
:103B40001C921E925797A7CC4938534161057105C5
:103B500008F420CC808191810E948808D5010D91C4
:103B60001C91F80160857185808191814285538522
:103B7000DC01ED91FC916115710599F00088F189E6
:103B8000E02D099521E0019709F020E0F801248754
:103B9000948491101CC0F50146865786608A718A0C
:103BA0007BCC0684F785E02D27EC31E03A8329832E
:103BB000D8011496CD90DD90ED90FC901797CB82B4
:103BC000DC82ED82FE82BE016F5F7F4FDACF81E043
:103BD00090E0D50153969C938E93529712962D9117
:103BE0003C91F90101900020E9F731978F01021B08
:103BF000130BD12CC12CF12CE12C41E050E06DE1F4
:103C0000C5010E940D1EF50182859385A485B585A9
:103C100086879787A08BB18B3FCC2F923F924F9294
:103C20005F926F927F928F929F92AF92BF92CF924C
:103C3000DF92EF92FF920F931F93CF93DF9300D009
:103C400000D000D0CDB7DEB75C016E834A013901E8
:103C5000DC018D919C910E947508882309F4D3C0E2
:103C60008E818D7F09F401C1BE81B63009F4FDC09B
:103C7000BD3109F4FAC0F5018789908D019709F0EB
:103C8000C2C081149104B9F4D50154968D909C90D2
:103C900055978114910479F452968D919C91539784
:103CA000019609F4C9C053969C938E935297D501FF
:103CB00052968D909C908E818C50893090F5F501B4
:103CC00082859385A485B5854681578160857185F8
:103CD000481759076A077B0710F4AC01BD011A01A8
:103CE0002B01F2E42F0E311C411C511C0E941804C0
:103CF000A2019101261B370B480B590BDA01C901B0
:103D0000B7FDA0C0C5010E9492190E941804A2012B
:103D10009101261B370B480B590BDA01C901B7FF7C
:103D2000F1CFC80105966114710411F485E090E0AB
:103D3000512C412CE114F10409F02601480E591EC2
:103D4000BE81B9839824892498249B828A82C801E1
:103D50008C0D9D1D9827892798279D838C83D501DD
:103D6000ED91FC9180819181DC01ED91FC910280CB
:103D7000F381E02D45E050E0BE016F5F7F4F099574
:103D80004C0160E070E0CB010E94E503BE81BB23E3
:103D900081F101151105A9F0D501ED91FC9180810A
:103DA0009181DC01ED91FC910280F381E02DA8016D
:103DB000B3010995880E991E60E070E0CB010E9466
:103DC000E503C114D104A9F0D501ED91FC918081E6
:103DD0009181DC01ED91FC910280F381E02DA6013F
:103DE000B7010995880E991E60E070E0CB010E9432
:103DF000E5038414950479F1F501108E178A80810A
:103E000091810E94880826960FB6F894DEBF0FBEF7
:103E1000CDBFDF91CF911F910F91FF90EF90DF9079
:103E2000CF90BF90AF909F908F907F906F905F905A
:103E30004F903F902F90089581E090E0F501938B93
:103E4000828B35CFD50156968C9181116ACFC501F1
:103E50000E94921966CF0E941804D5011A966D939C
:103E60007D938D939C931D97CECF8114910409F07F
:103E700058CF0ACFCF92DF92EF92FF920F931F930A
:103E8000CF93DF93CDB7DEB7C658D1090FB6F894FC
:103E9000DEBF0FBECDBF8C01CE010196CF57DF4FE5
:103EA00099838883C158D040CD57DF4F198218823B
:103EB000C358D04080E890E0CB57DF4F9983888388
:103EC000C558D04062E472E0CE018F579F4F0E94E8
:103ED000461766E070E0CE018F579F4F0E946D1924
:103EE000B801CE018F579F4F0E944617CD57DF4F25
:103EF00008811981C358D04001501109CF57DF4FB5
:103F000028813981C158D040D12CC12CF12CE12C11
:103F100050E040E064E183E396E00E940D1ECA5742
:103F2000DF4F0FB6F894DEBF0FBECDBFDF91CF914C
:103F30001F910F91FF90EF90DF90CF9008958F9297
:103F40009F92AF92BF92CF92DF92EF92FF920F9328
:103F50001F93CF93DF93CDB7DEB7C75AD1090FB602
:103F6000F894DEBF0FBECDBF0E9436086B017C0106
:103F7000CE0101964C01CE55DF4F99838883C25AFA
:103F8000D040CC55DF4F19821882C45AD04020E867
:103F9000A22EB12CCA55DF4FB982A882C65AD04092
:103FA00062E472E08F559F4F0E94461761E070E017
:103FB000CE018E559F4F0E946D198E010F571F4FD6
:103FC00023E045E0C701B6010E943B2CB801CE01B9
:103FD0008E559F4F0E944617CC55DF4F088119819F
:103FE000C45AD04001501109CE55DF4F2881398184
:103FF000C25AD040D12CC12CF12CE12C50E040E031
:1040000064E183E396E00E940D1E0E9452088C0139
:10401000CE55DF4F99828882C25AD040CC55DF4FAF
:1040200019821882C45AD040CA55DF4FB982A8827B
:10403000C65AD04062E472E0CE018E559F4F0E9476
:10404000461763E070E0CE018E559F4F0E946D19B8
:104050004AE0BE016F577F4FC8010E94982EBE01F3
:104060006F577F4FCE018E559F4F0E944617CC55FC
:10407000DF4F08811981C45AD04001501109CE5533
:10408000DF4F28813981C25AD04050E040E064E1DE
:1040900083E396E00E940D1EC955DF4F0FB6F894DA
:1040A000DEBF0FBECDBFDF91CF911F910F91FF906B
:1040B000EF90DF90CF90BF90AF909F908F9008953A
:1040C0001F920F920FB60F9211242F933F934F938D
:1040D0005F936F937F938F939F93AF93BF93EF9370
:1040E000FF9386EE93E00E942702FF91EF91BF912C
:1040F000AF919F918F917F916F915F914F913F9180
:104100002F910F900FBE0F901F9018951F920F9236
:104110000FB60F9211242F938F939F93EF93FF93DA
:10412000E091F603F091F7038081E091FC03F091B8
:10413000FD0382FD1BC090818091FF038F5F8F7311
:1041400020910004821741F0E091FF03F0E0EA5172
:10415000FC4F958F8093FF03FF91EF919F918F917B
:104160002F910F900FBE0F901F9018958081F4CF64
:104170001F920F920FB60F9211242F933F938F939C
:104180009F93AF93BF938091480390914903A0916F
:104190004A03B0914B033091470323E0230F2D379F
:1041A00058F50196A11DB11D209347038093480344
:1041B00090934903A0934A03B0934B0380914C031F
:1041C00090914D03A0914E03B0914F030196A11D14
:1041D000B11D80934C0390934D03A0934E03B09375
:1041E0004F03BF91AF919F918F913F912F910F906E
:1041F0000FBE0F901F90189526E8230F0296A11D61
:10420000B11DD2CF1F920F920FB60F9211242F9390
:104210003F934F935F936F937F938F939F93AF934E
:10422000BF93EF93FF938091B900887F803609F4A4
:104230004AC0F0F5883209F4A7C018F5803109F4B6
:104240009BC0B8F4882309F4F9C0883009F494C0FD
:10425000FF91EF91BF91AF919F918F917F916F915E
:104260005F914F913F912F910F900FBE0F901F9034
:104270001895883109F488C0803251F780931D0366
:1042800014C0803409F49DC040F48033B9F38833FE
:10429000F9F680931D0385ECB0C0803509F485C024
:1042A000883509F496C0883499F60E949617D0CFC5
:1042B000883909F48CC038F5883729F050F48836ED
:1042C00011F0803729F683E080931F031092F802E3
:1042D00057C0883809F47BC0803919F0803809F05C
:1042E000B7CF8091F802803208F071C0E091F802F7
:1042F00081E08E0F8093F8028091BB00F0E0E852DD
:10430000FD4F80833DC0803B39F0E0F4803A09F4F2
:1043100079C0883A09F09CCF84E080931F03109203
:10432000D7021092D602E091C003F091C103099523
:104330008091D60281110FC081E08093D602109245
:10434000B60209C0803C09F4A6CF883C09F4A3CF8B
:10435000883B09F07DCFE091D70281E08E0F8093FA
:10436000D702F0E0EA54FD4F80818093BB0090912A
:10437000D7028091D60229C08091FA028093BB00B7
:1043800085EC8093BC0064CF90911C0380911B034B
:10439000981758F5E0911C0381E08E0F80931C0361
:1043A000F0E0E550FD4F8081E9CFE0911C0381E012
:1043B0008E0F80931C038091BB00F0E0E550FD4F11
:1043C000808390911C0380911B039817C8F285E8A5
:1043D000D8CFE0911C0381E08E0F80931C03809165
:1043E000BB00F0E0E550FD4F808380911E038111FA
:1043F0005CCF81E08093F90284EA8093BC00109244
:104400001F0326CF85EC8093BC0010921F03809180
:10441000F802803230F4E091F802F0E0E852FD4F0B
:1044200010826091F80270E0E091BE03F091BF034A
:1044300088ED92E009951092F8020ACF10921D03C0
:1044400034CFDC01ED91FC911197309761F0129619
:104450002D913C911397E217F30728F40190002067
:10446000E9F7ED93FC930895FC0180819181009719
:1044700039F0228133818217930710F40C94222E95
:1044800090E080E00895AF92BF92CF92DF92EF92DA
:10449000FF920F931F93CF93DF93CDB7DEB7CF5B20
:1044A000D1090FB6F894DEBF0FBECDBF5C01CE01BF
:1044B00086589F4FC654DF4F99838883CA5BD0408C
:1044C000C454DF4F19821882CC5BD04080E490E066
:1044D000C254DF4F99838883CE5BD04060E372E0A3
:1044E000CE0186549F4F0E94461765E372E0CE01CD
:1044F00086549F4F0E94461749E750E06AE671E0F4
:10450000CE0101960E94672EC454DF4FC880D98027
:10451000CC5BD040C654DF4FE880F980CA5BD04006
:1045200009E710E09E012F5F3F4F50E040E061E15E
:10453000C5010E940D1EC154DF4F0FB6F894DEBFB7
:104540000FBECDBFDF91CF911F910F91FF90EF90E4
:10455000DF90CF90BF90AF900895E6EEF3E0138226
:10456000128288EE93E0A0E0B0E084839583A68376
:10457000B78329E631E03183208325EC30E03587AD
:10458000248724EC30E03787268720EC30E0318B1D
:10459000208B21EC30E0338B228B22EC30E0358B0A
:1045A000248B26EC30E0378B268B118E128E138EE7
:1045B000148EE3E8F4E01382128284839583A68349
:1045C000B7838BE791E091838083EFE8F4E087EC99
:1045D00091E0918380831282138214821582E5E92F
:1045E000F4E0918380831282138214821582EBE9B6
:1045F000F4E0918380831282138214821582E1EAAF
:10460000F4E0918380831282138214821582E7EA98
:10461000F4E0918380831282138214821582E3EB8B
:10462000F4E0918380831282138214821582EDEA72
:10463000F4E0918380831282138214821582E9EB65
:10464000F4E0918380831282138214821582EFEB4F
:10465000F4E0918380831282138214821582EEE645
:10466000F6E0918380831282138214821582EFE533
:10467000F6E01382128229E931E03183208324E0BD
:10468000248728EE33E036872587A2E5B6E0139627
:104690009C938E93129714961D921D921D921C92BC
:1046A000179719961C921E9218971B961C921E9291
:1046B0001A971C961C921C971196FC93EE9340E758
:1046C00057E160E070E04483558366837783E3E3DA
:1046D000F6E0B183A08313821282158214821682BF
:1046E0001782108611861286138614861586168602
:1046F0001786108A118A138A128A158A148A168AD2
:10470000108E178A8FEF9FEF9093320680933106B9
:10471000E5ECF4E0138212828DE891E091838083CE
:1047200087E2848380E1818782E08287138608950F
:10473000CF93DF93CDB7DEB7C659D1090FB6F89442
:10474000DEBF0FBECDBF789484B5826084BD84B5D2
:10475000816084BD85B5826085BD85B5816085BD7C
:1047600080916E00816080936E0010928100809134
:1047700081008260809381008091810081608093BC
:104780008100809180008160809380008091B100E1
:1047900084608093B1008091B00081608093B0000C
:1047A00080917A00846080937A0080917A008260A0
:1047B00080937A0080917A00816080937A00809162
:1047C0007A00806880937A001092C1008EEF809307
:1047D0004C069DEE90934D062AEB20934E06809357
:1047E0004F06809350069093510620E031E0D901A6
:1047F0000D900020E9F79D0121503140A0E0B1E08B
:10480000E1E0F0E0AD01405051404217530784F41D
:10481000AF014F5F5F4F6D91ED5CF94F818D862742
:10482000818F4630510514F041E050E0FA01EACFA3
:104830008091B60381112AC010929E0310929D03AD
:1048400088EE93E0A0E0B0E080939F039093A003F4
:10485000A093A103B093A2038FE391E090939C03F4
:1048600080939B0387EC91E09093AA038093A90324
:104870001092AB031092AC031092AD031092AE03F2
:1048800084E08093B30381E08093B60388E593E0EE
:104890009093570380935603809155038111ADC0C7
:1048A00060E372E080E090E00E94E503DFB6F894F8
:1048B0000DE012E0E1E2EE2EE2E0FE2E80915303E5
:1048C000811125C0F8018491F7019491E82FF0E05F
:1048D000EE0FFF1FE151FE4FA591B4918C919823EB
:1048E00021F461E08AE00E94E40261E08AE00E9433
:1048F00012038CB580618CBD8CB580648CBD61E089
:104900008DE00E94120361E08BE00E94120380910F
:1049100053038F5F80935303DFBEF8010491E02FB0
:10492000F0E0EE0FFF1FEB51FE4F859194919093B5
:10493000520380935103F701E490E092500361E049
:104940008AE00E9412030E94600680E591E00E94C6
:104950008D0184E38093E50380E80E942C070E9488
:10496000DF0B882309F40AC288E00E942C070E940A
:10497000CC0B883009F002C280E10E942C070E9413
:10498000CC0B803109F0FAC180E00E942C070E9414
:10499000CC0B182F8111F2C141E050E0BE016F5FD6
:1049A0007F4F8FE190E00E94570A8981833009F0A0
:1049B000E5C180E48093540342E06EE170E0812F12
:1049C0000E94880742E06FE170E0812F0E94880713
:1049D0001F5F143089F740E06EE170E0812F0E9484
:1049E000880740E06FE170E0812F0E9488071F5F19
:1049F000183089F781E08093550380E591E00E94AB
:104A00008D0146E050E06CE476E089E090E00E94A1
:104A10007C0687EC91E09A8389831B821C821D822D
:104A20001E8244E050E0BE016D5F7F4F8FE090E05A
:104A30000E947C060091560310915703D80192966C
:104A40001D921D921D921C929597F80116A217A215
:104A500010A611A69A961D921D921D921C929D97CA
:104A600080E69AEEA0E0B0E086AB97ABA0AFB1AF26
:104A700080EA9FE0A0E0B0E082AF93AFA4AFB5AF13
:104A8000D801189686E0FD01282F11922A95E9F7A2
:104A90009801225F3F4F94E1F90111929A95E9F74D
:104AA000ECE4F6E001900D928A95E1F72C5C3F4F23
:104AB000C157DF4F39832883CF58D040D9011C928A
:104AC0000E94CA2D2FEC37E040E050E00E941832DF
:104AD000DC01CB010196A11DB11DF80184839583F2
:104AE000A683B78380839183A283B3835801F3E4C1
:104AF000AF0EB11CC5010E94270B64E470E0C50134
:104B00000E94900E882309F4AAC10E9418042B0168
:104B10003C0148EEC42E43E0D42EE12CF12C52E0AF
:104B2000252E912C812CC157DF4FA881B981CF58F8
:104B3000D0408C918330E1F181119BC1F8018481D7
:104B40009581A681B7810196A11DB11D84839583AE
:104B5000A683B7830E94180464197509860997090A
:104B6000A70196010E948132A90161E0C8010E945B
:104B7000381681E0C157DF4FA881B981CF58D040A6
:104B80008C93F1E08F16910471F20E94180464195D
:104B9000750986099709D801D6962D913D914D91B9
:104BA0005C91D997261737074807590708F0B9CFFE
:104BB000C5010E94270BF80184819581A681B781E8
:104BC0000196A11DB11D84839583A683B7830E949E
:104BD0001804F801FE9660837183828393838A941C
:104BE000892809F03CC180E591E00E948D01009187
:104BF000560310915703B801625F7F4F9E012F5FEC
:104C00003F4F5901C9010E94351244E050E0BE01F6
:104C10006D5F7F4F8FE090E00E947C06B8016A5E76
:104C20007F4FC5010E94351244E050E0BE016D5F28
:104C30007F4F81E090E00E947C06B8016E5E7F4F5E
:104C4000C5010E94351244E050E0BE016D5F7F4F08
:104C500085E090E00E947C06B801625E7F4FC5014E
:104C60000E9435128B819C81AD81BE818093AF04FF
:104C70009093B004A093B104B093B2040E94C00317
:104C80007F73809121019091220168277927709389
:104C900022016093210168EE73E080E090E00E94C1
:104CA000E50387EC91E09A8389831B821C821D8235
:104CB0001E8280E591E00E948D0144E050E0BE013B
:104CC0006D5F7F4F8FE090E00E94570A80E091E097
:104CD00090933606809335060E941804DC01CB01C0
:104CE00088589341A109B10980933D0690933E06EF
:104CF000A0933F06B09340068093390690933A06FE
:104D0000A0933B06B0933C068093410690934206E5
:104D1000A0934306B0934406E0913306F091340625
:104D200085E492E09187808780E590E09387828791
:104D300080913306909134060E94880810924B06A9
:104D400010924A060E9418046B017C0180914A0669
:104D500090914B06019709F46BC10E9418046C19DD
:104D60007D098E099F09603576448105910508F01B
:104D70005FC183E396E00E949219E8CF87E38093B6
:104D8000E50380E80E942C070E94DF0B882329F1AD
:104D900088E00E942C070E94CC0B8830F1F480E15F
:104DA0000E942C070E94CC0B182F8031B1F480E0B8
:104DB0000E942C070E94CC0B81110FC041E050E0F3
:104DC000BE016F5F7F4F89E390E00E94570A89819F
:104DD000843019F4109354030DCE83E38093E503DC
:104DE00080E80E942C070E94DF0B8823B1F180E14C
:104DF0000E942C070E94CC0B803179F582E10E9441
:104E00002C070E94CC0B823141F580E00E942C07D8
:104E10000E94CC0B811121C084E08093540315E5DE
:104E2000C257DF4F1883CE58D04041E050E0BE015A
:104E300062577F4F8BE190E00E947C06C357DF4FA3
:104E40001883CD58D04041E050E0BE0163577F4FFA
:104E50008AE190E00E947C06CDCD1092E50360E1EE
:104E600077E280E090E00E94E503F0E0E0E0099561
:104E7000FFCF843019F5F80184819581A681B7812F
:104E80000196A11DB11D84839583A683B7830E94DB
:104E900018046419750986099709A70196010E94EB
:104EA0008132A90163E0C8010E943816C157DF4F63
:104EB000A881B981CF58D0402C9263CE813079F54A
:104EC000F80142AD53AD64AD75AD9E012F5F3F4F0C
:104ED000C8010E94CE17382EF2E08F139EC0898140
:104EE0009A81AB81BC81F80184839583A683B783C3
:104EF0000E9418046419750986099709A70196018B
:104F00000E948132A90163E0C8010E943816C1578E
:104F1000DF4FA881B981CF58D0403C9232CE823049
:104F200009F02FCEF80142AD53AD64AD75AD9E01D1
:104F30002F5F3F4FC8010E94CE17382EF5E08F1328
:104F400061C0E3E0C157DF4FA881B981CF58D0409D
:104F5000EC93F80182A193A1A4A1B5A1892B8A2B7E
:104F60008B2B41F424E833E040E050E022A333A34C
:104F700044A355A3F80186A197A1A0A5B1A5892BAB
:104F80008A2B8B2B61F482A193A1A4A1B5A1B69524
:104F9000A7959795879586A397A3A0A7B1A7F80192
:104FA00082A593A5A4A5B5A5892B8A2B8B2BA9F443
:104FB00082A193A1A4A1B5A1AC01BD0123E0769586
:104FC0006795579547952A95D1F7841B950BA60BA6
:104FD000B70B82A793A7A4A7B5A7F80186A197A1AD
:104FE000A0A5B1A586A797A7A0ABB1AB82A593A5B5
:104FF000A4A5B5A582AB93ABA4ABB5AB8824839431
:10500000912CBFCDF6E08F1308C0C157DF4FA881A8
:10501000B981CF58D0401C92B4CDBFEF3B12B1CD77
:10502000C157DF4FE881F981CF58D0401082A9CD18
:1050300080914A0690914B06019709F079CE109223
:10504000C5031092C4031092C3031092C2030E94BE
:105050009B0486EA91E09093C1038093C00387EAA2
:1050600091E09093BF038093BE031092CA04809195
:10507000CF04823018F098E09093CA048093CD0456
:1050800062E370E080E090E00E94E5036091D0046C
:1050900085EC94E00E945F0568EE73E080E090E0AC
:1050A0000E94E50360E385EC94E00E9460090BE454
:1050B00016E4C8010197F1F760E385EC94E00E94E3
:1050C0006009C8010197F1F760E385EC94E00E9464
:1050D000600983E592E00197F1F760E285EC94E0E6
:1050E0000E9460096091CA04606240E085EC94E02F
:1050F0000E94790984E08093CB0440E06CE085EC69
:1051000094E00E94790940E061E085EC94E00E941F
:1051100079090BE31FE1C8010197F1F762E0F62E70
:10512000F092CC0440E066E085EC94E00E947909BE
:1051300040E062E085EC94E00E947909C8010197A3
:10514000F1F788E08093D00460E085EC94E00E9461
:105150005F0540E061E085EC94E00E947909C801B8
:105160000197F1F740E062E085EC94E00E94790954
:10517000C8010197F1F760E080E00E94900981E5A5
:1051800092E00E94090961E084E00E94120361E05C
:1051900085E00E94120360E084E00E94E40260E087
:1051A00085E00E94E40261E083E00E941203E09146
:1051B000F603F091F703F082E091F203F091F3032C
:1051C0001082E091F403F091F50387E6808310925A
:1051D000FE03E091FA03F091FB0386E08083E09107
:1051E000F803F091F903808180618083E091F803F6
:1051F000F091F903808188608083E091F803F09159
:10520000F903808180688083E091F803F091F903CD
:1052100080818F7D80838FEF90E00E9496028FEFD8
:1052200090E00E9496028FEF90E00E94960280919B
:1052300031069091320697FF22C00E941804E1EDDA
:10524000F4E050E040E026E1249FD001259FB00D1E
:1052500011248D010F521B4FD801322F1D923A9508
:10526000E9F760837183828393834F5F5F4F769604
:105270004031510549F71092320610923106809163
:105280003106909132064097CCF5E1EDF4E090E0E4
:1052900080E024813581232B09F07AC22681378171
:1052A000232B09F075C226E1289F8001299F100D4C
:1052B00011240F521B4F88EE93E0A0E0B0E0F801FC
:1052C00083879487A587B6878FE99FE19583848339
:1052D0001286108A178681E0838B0E941804D801F9
:1052E0006D937D938D939C9313978091310690914C
:1052F000320601969093320680933106222423943D
:10530000312C52E0852E912C83E396E00E94921975
:105310000E941804CD56DF4F688379838A839B836C
:10532000C359D04031EDE32E34E0F32E8701F8016C
:10533000158A148A84819581892B29F48681978125
:10534000892B09F450C0D8012D913D914D915C916C
:105350001397C157DF4F288339834A835B83CF5824
:10536000D040CD56DF4F688179818A819B81C359B6
:10537000D040621B730B840B950B1B964D905D9078
:105380006D907C901E97641575058605970558F1FC
:10539000A30192010E948132C301B2010E9429330C
:1053A000C157DF4F288139814A815B81CF58D04076
:1053B000620F731F841F951FD8016D937D938D938A
:1053C0009C93139753968C915397882361F01F9663
:1053D0002D913C9150972115310509F0E0C155966A
:1053E0003C922E9254970A5E1F4FF6E001331F073E
:1053F00009F09DCF10E000E0D70154968D919C916B
:105400005597892BE9F11A968C911A97882309F4FC
:10541000D9C11696ED91FC91179718968D919C9194
:105420000995F70184899589029751F58091310694
:1054300090913206892B21F184819581892B21F469
:1054400086819781892BE1F026E1209FF001219F41
:10545000F00D1124EF52FB4FDF011D922A95E9F761
:105460000E941804F7016083718382839383809183
:10547000310690913206019790933206809331065F
:105480000F5F1F4FF6E1EF0EF11C0031110509F01F
:10549000B3CFC957DF4F19821882C758D040C757BA
:1054A000DF4F19821882C958D040C557DF4F198283
:1054B0001882CB58D04070E060E0CE0189579F4FF2
:1054C0000E946E17C957DF4F28813981C758D040D5
:1054D00081117DC12115310519F0C9010E94F52CFA
:1054E000C957DF4F19821882C758D040C557DF4FC0
:1054F00019821882CB58D040C757DF4F19821882C3
:10550000C958D0400E943608CF57DF4F1982188201
:10551000C158D040CD57DF4F19821882C358D040B0
:10552000CB57DF4F19821882C558D040850122E041
:1055300044E00E943B2C7C01009709F45FC1FC0110
:1055400001900020E9F731978F01081B190BB80172
:10555000CE018F579F4F0E946E17CF57DF4F288184
:105560003981C158D04081113EC12115310519F052
:10557000C9010E94F52CCF57DF4F19821882C158FC
:10558000D040CB57DF4F19821882C558D040CD5735
:10559000DF4F19821882C358D040C957DF4F888126
:1055A0009981C758D040009709F434C1CF57DF4FD5
:1055B00068817981C158D0406115710509F428C10D
:1055C000C757DF4F48815981C958D040CB57DF4F6B
:1055D00028813981C558D0404217530708F418C1B3
:1055E0000E942934CB57DF4F88819981C558D0401C
:1055F000C557DF4F99838883CB58D040CB57DF4FB7
:1056000019821882C558D040CF57DF4F88819981C1
:10561000C158D040009711F00E94F52C60E082E064
:105620000E949009C557DF4F48815981CB58D0401F
:10563000C957DF4F68817981C758D04085EC94E025
:105640000E94A9010E9452088C019093C803809384
:10565000C70361E082E00E949009A80170E060E069
:105660002AE085EC94E00E94B0088FE00E94AB0332
:1056700096958795969587956FEF70E0681B790BE7
:1056800083E00E944E0364E670E080E090E00E94B8
:10569000E5030E94360820E030E04CE052E40E942E
:1056A000243318160CF05DC08091C603882309F4DA
:1056B00058C01092C60360E085E00E94E40260E0FA
:1056C00087E00E94900988EF91E00E94090984E533
:1056D00092E00E943A1F8BE792E00E943A1FCF5758
:1056E000DF4FB982A882C158D040CD57DF4F198211
:1056F0001882C358D04020E830E0CB57DF4F3983C1
:105700002883C558D04062E472E0CE018F579F4F86
:105710000E94461762E070E0CE018F579F4F0E94B3
:105720006D1970E060E0CE018F579F4F0E946D1998
:10573000CD57DF4F08811981C358D040015011095E
:10574000CF57DF4F28813981C158D040D12CC12C8F
:10575000F12CE12C50E040E064E183E396E00E940C
:105760000D1EC957DF4F88819981C758D0400097D7
:1057700011F00E94F52C40E050E0452B09F4C4CD17
:105780000E941302882309F4BFCD0E940000BCCD03
:10579000019676968031910509F07BCDAFCDF80169
:1057A000818992898217930708F01DCE358A248A51
:1057B0000196928B818B8217930708F414CE958AF9
:1057C000848A11CE1496ED91FC9109952ACEC55785
:1057D000DF4F19821882CB58D04062E972E0C901CC
:1057E0000E9429348FCECB57DF4F19830883C558C9
:1057F000D040B701C9010E942934CFCECF57DF4F27
:1058000088819981C158D040009709F0B2CEB3CEBB
:105810000E94F52CCF57DF4F88819981C158D04025
:10582000C957DF4F99838883C758D040CD57DF4F82
:1058300088819981C358D040C757DF4F99838883A7
:10584000C958D040CB57DF4F88819981C558D04087
:10585000C557DF4F99838883CB58D040CF57DF4F50
:1058600019821882C158D040CD57DF4F1982188253
:10587000C358D040C3CEEF920F931F93CF93DF93C3
:10588000E80134E047FD34E1042E000C550B57FFCE
:1058900003C0519541955109E32E022F242FAE01EB
:1058A0000E94B22ECE01DF91CF911F910F91EF9008
:1058B00008950F931F93CF93DF938230910510F4D7
:1058C00082E090E0E0917606F091770630E020E00B
:1058D000B0E0A0E0309799F42115310509F44AC0F1
:1058E000281B390B24303105D8F58A819B8161153D
:1058F000710589F1FB0193838283FE0111C0408110
:1059000051810281138148175907E0F04817590760
:1059100099F4109761F012960C93129713961C93BA
:105920003296CF01DF91CF911F910F91089500938F
:10593000760610937706F4CF2115310551F0421702
:10594000530738F0A901DB019A01BD01DF01F8011D
:10595000C1CFEF01F9CF9093770680937606CDCF34
:10596000FE01E20FF31F8193919322503109398395
:105970002883D7CF2091740630917506232B41F4EC
:1059800020912501309126013093750620937406ED
:1059900020912301309124012115310541F42DB7C7
:1059A0003EB74091270150912801241B350BE0910F
:1059B0007406F0917506E217F307A0F42E1B3F0B57
:1059C0002817390778F0AC014E5F5F4F2417350771
:1059D00048F04E0F5F1F50937506409374068193F5
:1059E00091939FCFF0E0E0E09CCFCF93DF930097BF
:1059F000E9F0FC01329713821282A0917606B091F1
:105A00007706ED0130E020E01097A1F4208131818C
:105A1000820F931F2091740630917506281739075D
:105A200009F061C0F0937506E0937406DF91CF91A1
:105A30000895EA01CE17DF07E8F54A815B819E01F0
:105A400041155105B1F7E901FB83EA834991599169
:105A5000C40FD51FEC17FD0761F480819181029678
:105A6000840F951FE90199838883828193819B83A9
:105A70008A83F0E0E0E012968D919C911397009755
:105A8000B9F52D913C911197CD010296820F931F8C
:105A900020917406309175062817390739F630972A
:105AA00051F51092770610927606B0937506A09382
:105AB0007406BCCFD383C28340815181840F951F6C
:105AC000C817D90761F44E5F5F4F88819981480FED
:105AD000591F518340838A819B819383828321153F
